:100000000C94BA070C94D7070C94D7070C941330B0
:100010000C94D7070C94D7070C94D7070C94D707E8
:100020000C94D7070C94D7070C94602C0C94B12D2A
:100030000C94BC160C94D7070C94D7070C94D707D4
:100040000C94D7070C94D7070C94D7070C94D707B8
:100050000C94D7070C943C2C0C94D7070C94D7071E
:100060000C94D7070C94D7070C94D7070C94D70798
:100070000C94D7070C94D7070C94D7070C94D70788
:100080000C94D7070C94D7070C94D7070C94D70778
:100090000C94D7070C94D7070C94D7070C94D70768
:1000A0000C94D7070C94D7070C94D7070631FF0997
:1000B00074A1010975150026FF00952075088102BD
:1000C000C005010902A10185020901A10005091964
:1000D000012908150025019508750181020501090E
:1000E0003009311581257F9502750881060938157B
:1000F00081257F950175088106050C0A3802158156
:10010000257F950175088106C0C005010980A10100
:10011000850319012AB700150126B700950175104E
:100120008100C0050C0901A101850419012AA00262
:10013000150126A002950175108100C00501090670
:10014000A1018506050719E029E715002501950895
:10015000750181020507190029EF1500250195F0A9
:10016000750181020508190129059505750191029E
:10017000950175039101C005010906A10105071943
:10018000E029E715002501950875018102950175A3
:100190000881010507190029FF150026FF009506B3
:1001A0007508810005081901290515002501950527
:1001B00075019102950175039101C05461726765E3
:1001C0007420636F6E6E65637465640D0A0054611C
:1001D0007267657420646973636F6E6E65637465BE
:1001E000642C207468726F74746C696E6720636F1E
:1001F0006E6E656374696F6E20617474656D707482
:10020000730D0A006F6C65645F6F6E20636D642010
:100210006661696C65640A0000AF6F6C65645F6F4E
:10022000666620636D64206661696C65640A00001F
:10023000AE0000000000003E5B4F5B3E003E6B4F97
:100240006B3E001C3E7C3E1C00183C7E3C18001C93
:10025000577D571C001C5E7F5E1C0000183C180078
:1002600000FFE7C3E7FF00001824180000FFE7DBEA
:10027000E7FF0030483A060E00262979292600407B
:100280007F05050700407F05253F005A3CE73C5AA3
:10029000007F3E1C1C0800081C1C3E7F0014227FAF
:1002A0002214005F5F005F5F0006097F017F00008E
:1002B0006689956A0060606060600094A2FFA29405
:1002C0000008047E04080010207E20100008082A80
:1002D0001C0800081C2A0808001E10101010000C32
:1002E0001E0C1E0C0030383E383000060E3E0E0646
:1002F0000000000000000000005F00000000070098
:10030000070000147F147F1400242A7F2A12002380
:1003100013086462003649562050000008070300A5
:1003200000001C224100000041221C00002A1C7F0A
:100330001C2A0008083E08080000807030000008F1
:10034000080808080000006060000020100804028F
:10035000003E5149453E0000427F4000007249493D
:100360004946002141494D33001814127F100027DF
:1003700045454539003C4A494931004121110907A9
:1003800000364949493600464949291E00000014F3
:100390000000000040340000000008142241001456
:1003A0001414141400004122140800020159090613
:1003B000003E415D594E007C1211127C007F49497C
:1003C0004936003E41414122007F4141413E007F8C
:1003D00049494941007F09090901003E41415173E2
:1003E000007F0808087F0000417F41000020404155
:1003F0003F01007F08142241007F40404040007FC1
:10040000021C027F007F0408107F003E4141413EF4
:10041000007F09090906003E4151215E007F09194C
:1004200029460026494949320003017F0103003F64
:100430004040403F001F2040201F003F4038403FC9
:10044000006314081463000304780403006159492D
:100450004D4300007F41414100020408102000008C
:100460004141417F000402010204004040404040FD
:10047000000003070800002054547840007F2844FF
:10048000443800384444442800384444287F003825
:10049000545454180000087E0902001824241C78C3
:1004A000007F080404780000447D400000204040A4
:1004B0003D00007F102844000000417F4000007C88
:1004C00004780478007C08040478003844444438F4
:1004D000007C1824241800182424187C007C0804AC
:1004E00004080048545454240004043F4424003CAD
:1004F0004040207C001C2040201C003C4030403C00
:10050000004428102844004C9090907C004464548F
:100510004C44000008364100000000770000000055
:1005200041360800000201020402003C2623263C5A
:1005300000000000000000000000000000000000BB
:1005400000C0E0F0F8F81800C0F0FCFEFFFFFFFF6D
:10055000FFFFFF7E00000000000000000080C0E000
:10056000E0E0E0E0E0E0E0C0800000000080C0E00B
:10057000E0E0E0E0E0E0E0C080000000E0E0C0C0DB
:10058000E0E0E0E00000E0E0C0C0E0E0E0E0E0C08B
:10059000800000000080C0E0E0E0E0E0E0E0E0C0DB
:1005A000800000000000000000000000000000E0EB
:1005B000F0F0F0E0ECEEF7F37020007C7C7C7E0045
:1005C0007E7E7E7F7F7F000080C0E07E5B4F5BFE93
:1005D000C00000C000DCD7DEDEDED7DC00C00000DB
:1005E000000000000000000000000000000000000B
:1005F00000000000000000000000F8FCFEFFE0002A
:10060000FFFFFFFFFFFF80FFFFFFFFFFFFFFFFFF79
:100610001F0701000000000000000000FFFFFF8135
:1006200000000000000081C3C3C30000FFFFFF8182
:1006300000000000000081FFFFFF0000FFFFFF013E
:10064000000000000000FFFFFF010000000001FFAC
:10065000FFFF0000FFFFFF9D1C1C1C1C1C1C9DDFDE
:10066000DFDF000000000000000000000000000FBD
:100670001F3F7F7F7F7F7F3F1E0C001F1F1F3F009C
:100680003F3F3F7F7F7F00307B7F78302020307876
:100690007F3B0003000F7F0F0F0F7F0F0003000051
:1006A000000000000000000000000000000000004A
:1006B00000000000000000000000030F1F3F3F3F4C
:1006C0003F1F1F3F3F7F7F7F3F3F1F3F7F7F7F7FDA
:1006D0007C7878381C0F0000000000000001030740
:1006E00007070707070707030100000000010307CA
:1006F00007070707070707030100000007070700B0
:1007000000000000000007070700000000000007CD
:10071000070700000001030707070707070707038C
:1007200001000000000000000000000000000000C8
:1007300000000000000000000000000000000000B9
:1007400000000000000000000000000000000000A9
:100750000000000000000000000000000000000099
:100760000000000000000000000000000000000089
:1007700000726762206D61747269782073657420FD
:100780007370656564205B25735D3A2025750A00EA
:10079000726762206D617472697820736574206875
:1007A0007376205B25735D3A2025752C25752C25E5
:1007B000750A00726762206D6174726978206D6FCE
:1007C0006465205B25735D3A2025750A0009025493
:1007D00000030100A0FA090400000103010100095F
:1007E00021110100012244000705810308000109CD
:1007F000040100010300000009211101000122B6DB
:100800000007058203200001090402000103000023
:1008100000092111010001221500070583032000B2
:10082000011201000200000008534601000100010E
:100830000200010C0343006F0072006E00650000AF
:1008400000100366006F006F007300740061006E9B
:10085000000000040309045B435D005B445D005B32
:10086000535D005B575D005B525D0064656C5F6BC0
:1008700065795F6269743A2063616E2774206465EC
:100880006C3A20253032580A006164645F6B6579E8
:100890005F6269743A2063616E2774206164643A10
:1008A00020253032580A00290A002575002F00251E
:1008B00075005D28002564002000256400200025C7
:1008C000640020002564007C0025303258006D6FE4
:1008D0007573656B6579205B62746E7C7820792016
:1008E0007620685D287265702F61636C293A205B01
:1008F00000726762206D617472697820746F676737
:100900006C65205B25735D3A207267625F6D617470
:100910007269785F636F6E6669672E656E61626C7F
:1009200065203D2025750A0000010101010101013A
:100930000101020202020202020202030303030394
:100940000303030404040404040405050505050663
:100950000606060607070707070808080809090921
:10096000090A0A0A0B0B0B0C0C0C0D0D0D0E0E0ECA
:100970000F0F0F101011111112121313141415155B
:1009800016161717181819191A1A1B1B1C1D1D1ECD
:100990001E1F202021222223242425262627282921
:1009A000292A2B2C2D2D2E2F30313232333435364F
:1009B0003738393A3B3C3D3E3F404142434445464F
:1009C0004748494A4C4D4E4F50515354555658592B
:1009D0005A5B5D5E5F616264656668696B6C6D6FD2
:1009E0007072737577787A7B7D7E80828385878845
:1009F0008A8C8E8F91939596989A9C9EA0A2A3A57F
:100A0000A7A9ABADAFB1B3B5B7BABCBEC0C2C4C67F
:100A1000C9CBCDCFD1D4D6D8DBDDDFE2E4E7E9EB3B
:100A2000EEF0F3F5F8FAFDFF6565636F6E666967D2
:100A30005F7570646174655F7267625F6D61747227
:100A400069785F64656661756C740A007267625FDD
:100A50006D61747269785F636F6E6669672E666C2C
:100A6000616773203D2025640A007267625F6D61D3
:100A7000747269785F636F6E6669672E73706565FF
:100A800064203D2025640A007267625F6D617472A4
:100A900069785F636F6E6669672E6873762E76205D
:100AA0003D2025640A007267625F6D617472697827
:100AB0005F636F6E6669672E6873762E73203D20C4
:100AC00025640A007267625F6D61747269785F63A2
:100AD0006F6E6669672E6873762E68203D202564E8
:100AE0000A007267625F6D61747269785F636F6E2E
:100AF0006669672E6D6F6465203D2025640A00726B
:100B000067625F6D61747269785F636F6E66696753
:100B10002E656E61626C65203D2025640A00726757
:100B2000625F6D61747269785F636F6E666967207A
:100B3000454550524F4D0A007267625F6D61747295
:100B400069785F696E69745F647269766572732033
:100B50007267625F6D61747269785F636F6E6669F8
:100B6000672E6D6F6465203D20302E2057726974AA
:100B7000652064656661756C742076616C7565735B
:100B800020746F20454550524F4D2E0A0064697302
:100B9000706C61795F736574757032206661696C21
:100BA00065640A0000DA0281FFD9F1DB20A4A62ED9
:100BB000AF646973706C61795F666C69707065644D
:100BC000206661696C65640A0000A0C0D3006F6C88
:100BD00065645F696E697420636D64206E6F726D09
:100BE000616C20726F746174696F6E206661696CEC
:100BF00065640A0000A1C8D3006F6C65645F696E0C
:100C0000697420636D6420736574203120666169A6
:100C10006C65640A0000AED580A81F408D142000CA
:100C200073757370656E64696E67206B6579626F4A
:100C30006172640D0A000A0025303862003A200013
:100C400025303258000A722F632030313233343568
:100C500036370A00808182838485868788898A8BDB
:100C60008C8D8E8F9091929394A0A1A2A3A4A5A6FF
:100C7000A7A8A9AAABACADAEAFB0B1B2B3B4C0C176
:100C8000C2C3C4C5C6C7C8C9CACBCCCDCECFD0D1CC
:100C9000D2D3D4003A002C206B007800556E6465E6
:100CA000660041646A757374005261697365004C33
:100CB0006F7765720044656661756C74004C61798C
:100CC00065723A20006F6C65645F72656E64657270
:100CD00039302064617461206661696C65640A0062
:100CE0006F6C65645F72656E6465722064617461C7
:100CF000206661696C65640A006F6C65645F72658B
:100D00006E646572206F666673657420636F6D6DC7
:100D1000616E64206661696C65640A006C65645F7D
:100D20007461736B3A20253032580A004661696C51
:100D3000656420746F20657865637574652025731C
:100D40000A00290014001A00080015001700E1002D
:100D500004001600070009000A00E3001D001B0044
:100D6000060019000500000000000000E0002C4112
:100D70002B222A00130012000C0018001C00340063
:100D800033000F000E000D000B0028003800370064
:100D90003600100011000000000000004C002A4244
:100DA000000000001E001F002000210022000000A3
:100DB000E300E200E000E1000000000000000000AD
:100DC0000601190100000000000000000000010001
:100DD00000002A0000004E004B004D004A000000B9
:100DE00000004F0052005100500028000000000099
:100DF0000000000000000000000000004C002A433A
:100E00000000000000004500440043004200E100F3
:100E1000410040003F003E000000E3003D003C0078
:100E20003B003A000000000000000000E0002C43FE
:100E30002B220000000026002500240000000000F6
:100E4000000023002200210000000000000020001C
:100E50001F001E002700000000000000000001002D
:100E60000000007C000000000000000000003900CD
:100E70000000000000000000000000000000000072
:100E80000000000000000000000000000000010061
:100E90000000007C000000000000000000000000D6
:100EA00000000000000000000000027C00000000C4
:100EB0000000000000000000000000000000010031
:100EC00000000A002530325820006E6B726F5F728E
:100ED00065706F72743A2025303258207C20000AE9
:100EE000002530325820006B6579626F6172645F53
:100EF0007265706F72743A2025303258207C200061
:100F00004F6E6573686F743A206163746976653AF1
:100F10002025640A002020202061626364656667E2
:100F200068696A6B6C6D6E6F7071727374757677C9
:100F300078797A3132333435363738393052454260
:100F4000545F2D3D5B5D5C233B27602C2E2F2020C2
:100F50002044454255473A2064697361626C656478
:100F60002E0A0044454255473A20656E61626C6521
:100F7000642E0A0011241FBECFEFDAE0DEBFCDBF22
:100F800012E0A0E0B1E0ECE3F5E602C005900D92BE
:100F9000A43EB107D9F727E0A4EEB2E001C01D924C
:100FA000AA31B207E1F70E94A4250C9432320C94C6
:100FB0000000FF93EF93E091E402F091E502309797
:100FC00009F00995EF91FF910895FC01859180301A
:100FD00011F0EFDFFBCF0895FF27E0E230E247FF9B
:100FE0000CC0419597FF09C0EDE260957095809522
:100FF0009095611D711D811D911D27FF02C02195D6
:1010000030E350E2AA27660F771F881F991FAA1F97
:10101000A41710F0A41B63955A95A9F7AA3008F0FD
:10102000A95FA05DAF93F3956115710581059105E9
:1010300041F7ED3211F4EF93F395F21718F43F9363
:10104000F395FBCF8F91B5DFFA95E1F70895E9911C
:10105000F9918591803021F0853219F0AADFF9CF1E
:10106000089520E0E89455915532C1F3503311F4BE
:10107000689455915A3348F4505390F3220F022E3E
:10108000220F220F200D250FF4CF0EF42195899108
:101090009991533619F3533729F1533559F1BC015E
:1010A00088279927E8945C3621F48991999168946E
:1010B0005591543639F446EF7EF077FF0DC08FEF2F
:1010C0009FEF0AC055374AE039F0583540E121F02A
:1010D000523642E009F00895FF93EF937DDFEF91E0
:1010E000FF91B7CFFF93EF93FC0181918030B9F36B
:1010F00060DFFBCFFF93EF9368DFF1CFDF93CF93F8
:10110000CDB7DEB72596A3DFCF91DF910895829505
:10111000982F990F990F9C7C869586958373982BB1
:10112000892F880F8A7A96959575892B08959093C3
:10113000D2068093D10608959093D4068093D30667
:10114000089521E030E002C0220F331F8A95E2F7B4
:101150008091D3069091D406822B932B0E949C08F9
:10116000089521E030E002C0220F331F8A95E2F794
:10117000209530958091D3069091D40682239323B5
:101180000E949C080895983090F5863080F5E82FED
:10119000F0E086E0989FE00DF11D11248E2F8770FE
:1011A00041E001C0440F8A95EAF783E0F695E795A0
:1011B0008A95E1F7EE0FFF1FEE0FFF1FE356F94F81
:1011C00020E030E070E05191DF01CB01022E02C03F
:1011D000969587950A94E2F78170819585278423F7
:1011E00085278E932F5F3F4F2430310561F7089597
:1011F000983078F5863068F5E82FF0E086E0989F23
:10120000E00DF11D11249E2F977083E0F695E79570
:101210008A95E1F7EE0FFF1FEE0FFF1FE356F94F20
:1012200040E050E080E0219130E0092E02C0369588
:1012300027950A94E2F721703327042E01C0220F6C
:101240000A94EAF7822B4F5F5F4F4430510559F7FC
:10125000089580E008958091DA069091D906981358
:1012600001C008958F5F8770FACF9091D506809561
:1012700089238093D506282F277021110DC0891747
:1012800059F09091D70692FF07C08695869586956E
:101290000E94B1081092D50608958091CE069091D3
:1012A000D806892B5091CF06511591F090914301AA
:1012B000913021F49091D60697FD0BC096E028EE70
:1012C00032E040E0915048F441111092CF06852B56
:1012D00008959EE120EF32E0F4CFF90161919F0182
:1012E000611581F34F5FEECF982F90958091CE06D8
:1012F00089238093CE0608957830B8F46630A8F438
:101300008430B0F4E62FF0E096E0799FE00DF11D17
:10131000112490E3899FE00DF11D1124EE0FFF1FB2
:10132000EE5BF24F85919491089580E090E00895EE
:1013300081E0FCCF9C01803E910509F448C0D8F4BF
:101340008133910509F47DC048F48932910509F48F
:101350006DC08A9709F47CC0C9010895893391054D
:1013600051F18238910539F1C597B1F78091D606D0
:1013700085FFF2CF29C0843E910509F447C048F4A7
:10138000823E910599F1833E9105A9F121EE30E06D
:10139000E3CF863E910509F444C0873E9105E1F60E
:1013A0008091D60683FD61C09091D70691FF2BC036
:1013B00024EE30E0D1CF8091D6068370811152C0E7
:1013C0008091D70683FFC8CF29E230E0C5CF809156
:1013D000D60680FD33C09091D70690FFBDCF23EE97
:1013E00030E084FFB9CF20E030E0B6CF8091D60660
:1013F00082FDF5CFB1CF8091D60682FD30C09091AD
:10140000D70690FD2FC084FFA7CFEDCF8091D706E0
:1014100081FFA2CF8091D60627EE30E084FDE3CF96
:101420009BCF8091D60683FDF7CF96CF8091D606CD
:1014300085FD1EC08091D70683FF8ECF29E330E063
:101440008BCF8091D60686FF87CF2AE230E084CF0B
:101450008091D60686FF80CF21E330E07DCF22EE5B
:1014600030E07ACF20EE30E077CF26EE30E074CF58
:1014700025E330E071CF9091D60692FF10C041E095
:10148000282F2471243009F040E031E0282F287102
:10149000283009F030E0431711F02CE0822793FF49
:1014A00010C041E0282F2471243109F040E031E0E0
:1014B000282F2871283109F030E0431711F02CE073
:1014C00082273091D70630FF10C051E0282F2171BC
:1014D000213009F050E041E0282F2871283009F030
:1014E00040E0541711F029E0822731FF10C041E09D
:1014F000282F2171213109F040E031E0282F287197
:10150000283109F030E0431711F029E0822794FDDB
:10151000877E08951F93CF93DF930E949A09EC0171
:10152000811522E5920708F055C0811540E5940722
:1015300008F0D1C0803E910520F58D3C910508F062
:10154000A4C0883A910570F4853A910508F09AC0D4
:1015500081309105D1F10497813A9105B0F1C0E055
:10156000D0E033C0885A91094B97C8F7C85AD0E0E9
:10157000CC0FDD1FC958DD4F0990D881C02DD46430
:1015800024C0811550E49507C0F4C11580E2D80746
:1015900008F0B7C0C83ED105C0F0CE019A958115BC
:1015A0009F41E8F68D2F0E943B0A182FCE01992704
:1015B0000E949A09EC01D12B08C099270E949A0930
:1015C000CC27DF70C82BD92BD06ACE01DF91CF9109
:1015D0001F910895803842E59407C8F5803652E59A
:1015E000950708F05BC0C03482E5D807D0F4C0325C
:1015F00092E5D90708F04BC08C2F8695869520E29E
:10160000829FC0011124C37021E030E0A90102C013
:10161000440F551FCA95E2F7EA01C82BD92BDD68A4
:10162000D4CF8C2F86958695877050E2859FC00118
:101630001124C37021E030E0A90102C0440F551FFE
:10164000CA95E2F7EA01C82BD92BDC68BECF803CF3
:1016500052E5950758F48F71C03AD245A0F590E055
:10166000982F8827EC01C46FD06AAFCF805C924579
:10167000809708F074CFDC2FCC27CC27DF71C06FA8
:10168000D06AA3CFA497D064A0CFD0659ECFCF71EE
:10169000D0E0DC2FCC27C16FD06A97CF8695869596
:1016A000877020E2829FC0011124C37021E030E0E6
:1016B000A90102C0440F551FCA95E2F7EA01C82BE1
:1016C000D92BDA6882CF0E943B0AC82FD0E0DC2FEA
:1016D000CC27D0627ACF8F710E943B0A93E0CC0F67
:1016E000DD1F9A95E1F7CC27DF70282F30E084FFCB
:1016F00004C050E1859F90011124C22BD32BD069E7
:1017000064CF8D2F8F710E943B0A182FCE0199272D
:101710000E949A09EC01D12BDCCFA0E0B0E0E3E914
:10172000FBE00C944B318C01E090D306F090D40692
:101730008091D1069091D206E82AF92ACFE0D0E034
:10174000CC24C394D12CC6010C2E02C0880F991F43
:101750000A94E2F78E219F21892B49F4219798F76B
:10176000B12C8B2DCDB7DEB7E9E00C946731BC2EE0
:10177000B8018C2F0E947C090E948A0A019771F39C
:10178000F0CF0F931F93CF93FC01858100811181CE
:10179000811591F0611581F0C8010E948D0BC82F51
:1017A000682FC8010E94C308B8018C2F0E947C09D1
:1017B000CF911F910F910895C8010E94F808C82F7A
:1017C000F3CFCF93DF93D82FC92F0E948D0B6D2FAE
:1017D0007C2F0E947C090E948A0ADF91CF91089594
:1017E000FC0184818115A1F0808191810E94E10B2F
:1017F000282F92959F70963099F060F4925F9F70B9
:10180000923030F4203FB1F038F481E0283E38F0D7
:1018100080E008959A5FF3CF81E0243FC9F70895EF
:1018200091E0213F09F090E081E0283E08F080E05F
:10183000892B089581E00895F894E82FE295EF70E0
:10184000F0E041A18F7021E030E0B90102C0660FE5
:10185000771F8A95E2F7CB01962F9095942391A359
:1018600092A1892B82A378940895FF920F931F93DE
:10187000CF93DF93182F062FF42EC0E0D0E0CE01D7
:1018800020916C06211103C0CB3108F04B972F2D0E
:10189000402F612F0E946B0C2196C633D10579F73A
:1018A000CDB7DEB7E5E00C946B319BE0899F802DCE
:1018B0001124980F973308F096E320916C062111BC
:1018C00004C08B3128F48BE108959C3108F09BE132
:1018D0000895539A0895FC01EE0FFF1FE80FF91FBA
:1018E000E25CFC4F6183408322830895282F35EB0F
:1018F0002303C001112497FF04C080589109892F48
:10190000089580589F4FFBCF8091B70680FD14C08B
:1019100081FD14C082FD16C08091B606811581F04C
:101920008E3180F420E5829FC00111246EE170E0C9
:101930000E948531862F089584E1089588E20895F4
:1019400088E0089580E508958091B70680FD17C06E
:1019500081FD17C082FD19C08091B506811599F0EF
:10196000883298F428E0829FC001112468E270E078
:101970000E9485316115710551F0862F089562E04E
:10198000FCCF64E0FACF61E0F8CF68E0F6CF81E009
:10199000089580916B06811559F0E0919306F091BE
:1019A0009406309729F00190F081E02D0995089573
:1019B00080E00895A3E0B0E0E0EEFCE00C9452314A
:1019C0009C0180913C0390913D0382179307A1F005
:1019D00030933D0320933C03E0919306F0919406ED
:1019E000309751F083E089833B832A830084F1851B
:1019F000E02DCE01019609952396E2E00C946E311C
:101A0000A3E0B0E0E6E0FDE00C9452319C0180914F
:101A10003A0390913B0382179307A1F030933B0365
:101A200020933A03E0919306F0919406309751F099
:101A300084E089833B832A830084F185E02DCE01F5
:101A4000019609952396E2E00C946E318091420153
:101A500008952FB7F8946091360370913703809101
:101A60003803909139032FBF0895CF92DF92EF9200
:101A7000FF9280916B06811559F00E94290D6B0130
:101A80007C01C701B601FF90EF90DF90CF900895E1
:101A90000E94290DC0906D06D0906E06E0906F06F2
:101AA000F0907006C60ED71EE81EF91EEACF0F93FF
:101AB0001F938B019C014FB7F8946091360370918E
:101AC000370380913803909139034FBF601B710B2E
:101AD000820B930B1F910F91089587E797E79093DF
:101AE00001088093000888E19AE00FB6F894A89561
:101AF000809360000FBE90936000FFCFFC019B01BC
:101B000080912A0390912B038617970740F0672B4B
:101B100029F48091E8008E778093E800C90140E0C5
:101B2000009741F4411106C08091E80082FF2FC068
:101B300080E008952091F4032115A9F12530A9F141
:101B40002091E80023FD2DC02091E80022FDECCF7C
:101B50002091E80020FFE4CF3091F3002091F200C3
:101B6000009719F02830310558F041E02830310550
:101B700009F040E02091E8002E772093E800D0CFD4
:101B800041914093F10001972F5F3F4FE9CF809142
:101B9000F403811541F0853041F08091E80083FF26
:101BA000C3CF81E0089582E0089583E00895809195
:101BB000240387FF13C08091E80082FF06C0809154
:101BC000E8008B778093E80008958091F4038111F9
:101BD000F2CF08958091F4038115D9F38091E80044
:101BE00080FFF8CF8091E8008E77ECCF2091E40061
:101BF0003091E50095E6A9012091EC00822F8170DB
:101C000020FF06C08091E80080FF06C080E00895B4
:101C10002091E80022FD1AC08091F403811589F01B
:101C2000853089F08091EB0085FD0FC02091E400A4
:101C30003091E50042175307F9F29A95E1F684E0F6
:101C4000089582E0089583E0089581E00895E8ED25
:101C5000F0E080818E7F80831092E2001092DA00A3
:101C60001092E100A0EEB0E08C9181608C938081B5
:101C70008F77808319BCA7EDB0E08C918E7F8C9319
:101C800080818F7E8083109223030895FC01AC0134
:101C90004C5F5F4F8FEF61E39191892728E030E03F
:101CA000982F990F87FF09C0892F86272150304030
:101CB000B9F7E417F50781F70895892FF7CF982F23
:101CC0009093E900891771F07091EC002091ED007C
:101CD0005091F00021FD09C09F5F973089F78093F4
:101CE000E9000895762F242F50E03091EB003E7FDD
:101CF0003093EB003091ED003D7F3093ED0030915B
:101D0000EB0031603093EB007093EC002093ED001A
:101D10005093F0002091EE0027FDDECF0895A0E063
:101D2000B0E0E5E9FEE00C944C31C8EDD0E08881EC
:101D30008F7E8883E7EDF0E080818160808384E09E
:101D400082BF81E08093230388818E7F888302EEA7
:101D500010E0F80110821092DA0081EEC82ED12C2A
:101D6000F601108288818F778883888180688883D4
:101D700088818F7D888319BC1092F403109222030E
:101D80001092F3031092210390EEE92EF12CF7014B
:101D900080818B7F808388818160888342E060E0DE
:101DA00080E00E945F0EF60180818E7F8083F801C3
:101DB000808181608083808188608083F701808159
:101DC0008E7F8083888180618883CDB7DEB7E8E02D
:101DD0000C946831E091DA069091D90627E0E91376
:101DE00002C080E00895AE2FB0E02E9FF0011124D4
:101DF000E552F94F3181361306C03081381303C0E4
:101E00003581341304C0FD013196E770E8CF81E0DD
:101E100008959FB7F89410922D039FBF9091F403FB
:101E2000943009F047C02091E9009091EC002F70A8
:101E3000979599279795922B23E02093E90020917D
:101E4000EB0020FF34C02091EE0027FF30C020912E
:101E50002C03211521F02091E80025FF28C01092C5
:101E60002C0326E03091E80035FF14C08093F10088
:101E70008091E80085FD27C08091E80080FFFCCFBD
:101E80008091E8008E778093E8009F709093E9003E
:101E900080E008953091F403343049F43091EB0040
:101EA00035FD05C02A9541F481E080932C039F7095
:101EB0009093E9008FEF0895EFE9FFE03197F1F794
:101EC00000C00000CFCF8FB7F89421E020932D03FE
:101ED0008FBFDBCF3BB1377F2BB128604FB7F89472
:101EE0008EE393E0FC010196508168E02BB900007D
:101EF00000C057FF3BB9550F000000C000C000C034
:101F00003BB900C06A9591F753E0803E950751F7C1
:101F10004FBF8FE594E00197F1F700C000000895EE
:101F20000F931F93CF93DF938B01EA019091F403FA
:101F3000943059F58093E9008FEF9091E80095FD7A
:101F400006C095ED9A95F1F700008A95B1F780915A
:101F5000E80085FF1AC00E94F60D811111C0809122
:101F6000E80085FD06C08091E8008E778093E80048
:101F7000F2CFF80181918F018093F100219779F7D9
:101F80008091E8008E778093E800DF91CF911F91D8
:101F90000F910895CF93DF93D82FC92F48E050E0D9
:101FA000682F792F81E00E94900F88E0ED2FFC2FA1
:101FB000AEE2B3E001900D928A95E1F7DF91CF9107
:101FC0000895BC0140E250E082E00E94900F089525
:101FD000BC0146E050E082E00E94900F0895BC01F1
:101FE00043E050E082E00E94900F0895A0E0B0E04E
:101FF000ECEFFFE00C944731E82E992E862E772ED9
:10200000042FF52E590180916A069AE0C92ED12C31
:102010008A3018F0CC24C394D12CC1E0D0E0682DD4
:10202000772D8E2D992DF5010995182F811126C038
:102030002196CC16DD0694F0CC9FC001CD9F900D6B
:10204000900D112420E030E045E34A95F1F70000BF
:102050002F5F3F4F28173907B9F7E1CF8091CD06A1
:1020600080FF0CC0FF920F938CE29DE09F938F93B3
:102070000E947E080F900F900F900F90812FCDB788
:10208000DEB7EDE00C9463319091C406892F837024
:1020900021E0382F3227832F9C7F892B8093C40621
:1020A000109246018091CC0681608093CC0680918D
:1020B000CD0680FF12C01F923F938AE491E09F9368
:1020C0008F9381EF98E09F938F930E947E080F90EB
:1020D0000F900F900F900F900F90089590914301E3
:1020E000913091F0A8EEB2E0EFEF90E02D918217E1
:1020F00051F0EF3F19F4211101C0E92F9F5F963095
:10210000A9F7EF3F51F508959091D60697FFEACFD2
:10211000E82FE695E695E695803F70F4F0E0E25111
:10212000FD4F877021E030E001C0220F8A95EAF769
:102130008281822B828308959091CD0690FFE3CF18
:102140001F928F9389E898E09F938F930E947E0857
:102150000F900F900F900F9008950E2E000CFF0B14
:10216000EA51FD4FE7CF90914301913021F49091D6
:10217000D60697FD0CC0E8EEF2E09191891302C0FB
:10218000DF011E9252E0EE3EF507B9F70895E82F01
:10219000E695E695E695803F90F4F0E0E251FD4F3C
:1021A000877021E030E0A90102C0440F551F8A95D5
:1021B000E2F7CA01809592818923828308959091E4
:1021C000CD0690FFE3CF1F928F938BE698E09F930D
:1021D0008F930E947E080F900F900F900F9008959C
:1021E0008091C4068370811509F184608093C406D0
:1021F000109246018091CC0681608093CC0680913C
:10220000CD0680FF13C01F9281E08F938AE491E096
:102210009F938F9383EB97E09F938F930E947E0809
:102220000F900F900F900F900F900F90089581E0F6
:102230000E94F01008958091C406869586958A952F
:1022400009F481E00E94F01008959C018091C40679
:102250008370811559F12093C5066093C6064937EE
:1022600008F048E74093C7068091CC0681608093D0
:10227000CC068091CD0680FF19C01F924F931F920C
:102280006F9333273F932F938AE491E09F938F932B
:1022900080E997E09F938F930E947E088DB79EB749
:1022A0000A960FB6F8949EBF0FBE8DBF0895E4EC5A
:1022B000F6E0818190E04381628108960E942511B9
:1022C0000895E4ECF6E08181438162818850990BA6
:1022D0000E9425110895E4ECF6E0628120E1620F8E
:1022E00008F46FEF8181438190E00E9425110895E9
:1022F000E4ECF6E0628120E1621B08F460E0818199
:10230000438190E00E9425110895E4ECF6E04381BA
:1023100020E1420F08F44FEF8181628190E00E943A
:1023200025110895E4ECF6E0438120E1421B08F416
:1023300040E08181628190E00E94251108958093A0
:10234000C8069091CC0691609093CC069091CD06F2
:1023500090FF12C01F928F938AE491E09F938F9316
:1023600081E797E09F938F930E947E080F900F90D4
:102370000F900F900F900F9008958091C80620E164
:10238000382F320F08F43FEF832F0E949F110895DA
:102390008091C80620E1382F321B08F430E0832FEB
:1023A0000E949F110895CF93C82F8091D70682FB7A
:1023B000992790F99C17F9F0C0FB82F98093D70612
:1023C0006091D6067091D70684E090E00E942C328E
:1023D00082E00E9435098091CD0680FF0CC01F92DB
:1023E000CF9380E09FE09F938F930E947E080F9091
:1023F0000F900F900F90CF9108950F931F93CF934D
:10240000DF9380914301813009F069C08091D60645
:1024100087FF65C00E944D098093EF0240E250E0C3
:1024200063E776E08EEE92E00E94CA31892B09F4D0
:1024300051C080E2EEEEF2E0A3E7B6E001900D922B
:102440008A95E1F7E0919306F0919406309709F4AC
:1024500041C086E08093EE020480F581E02D8EEE8F
:1024600092E009958091CD0682FF34C080FF0EC0B6
:102470008091EF021F928F938AEC9EE09F938F933F
:102480000E947E080F900F900F900F90CEEED2E03A
:1024900004EC1EE08091CD0680FF0BC08A811F9264
:1024A0008F931F930F930E947E080F900F900F90B1
:1024B0000F90219683E0CC30D80761F78091CD064C
:1024C00080FF08C082EC9EE09F938F930E947E085D
:1024D0000F900F90DF91CF911F910F9108950E945F
:1024E0004D098093E60248E050E065E976E086EE2B
:1024F00092E00E94CA31892B69F388E0E6EEF2E0AF
:10250000A5E9B6E001900D928A95E1F7E091930676
:10251000F09194063097F1F20280F381E02D86EE7F
:1025200092E009958091CD0682FFD4CF80FF0EC046
:102530008091E6021F928F9387EE9EE09F938F9388
:102540000E947E080F900F900F900F90C6EED2E081
:1025500001EE1EE08091CD0680FF0BC08A811F92A4
:102560008F931F930F930E947E080F900F900F90F0
:102570000F90219682E0CC3ED80761F78091CD067E
:1025800080FFA8CF8FED9EE09FCF811539F090910D
:10259000CE06892B8093CE060E94FD1108958115E9
:1025A00021F00E9474090E94FD110895A4E0B0E09A
:1025B000ECEDF2E10C9451316091440670914506C6
:1025C00080914606909147060E94570D11E06436AF
:1025D00071058105910578F10E94350DDC01CB0173
:1025E0000296A11DB11D89839A83AB83BC83809120
:1025F0003201909133018C5A994F20913101422F31
:1026000050E0253010F044E050E0BE016F5F7F4F96
:102610000E94D73183E090E00E94BA30182F8115D4
:1026200051F00E94290D60934406709345068093F3
:10263000460690934706812F2496E3E00C946D3173
:102640008F929F92BF92CF92DF92EF92FF920F9361
:102650001F93CF93DF93C82F7B01B42ED52FB901E1
:102660006801A8018B2D9D2F0E94CA314C01F701F2
:1026700060817181828193810E94570D643671055A
:102680008105910510F4892829F10C2F0C2E000CDE
:10269000110B88E0C802F0011124E75EFE4F818132
:1026A00092818C5A994F2081422F50E0C216D1045A
:1026B00008F4A6016B2D7D2F0E94D731C8010E941E
:1026C000BA30811541F00E94290DF70160837183B2
:1026D0008283938381E0DF91CF911F910F91FF90CF
:1026E000EF90DF90CF90BF909F908F9008950F93C1
:1026F0001F93AC0104E010E029E536E068E476E0E1
:1027000082E00E9420131F910F910895A9E0B0E08C
:10271000ECE8F3E10C94503188E0E4ECF6E0DE0103
:10272000119601900D928A95E1F7198609E010E063
:1027300021E636E0AE014F5F5F4F60E476E084E073
:102740000E9420132996E4E00C946C31EF92FF92E2
:102750001F93CF93DF9300D000D00F92CDB7DEB799
:102760007B0180E090E00E94BA30182F811509F4B7
:1027700060C080911C01482F50E0811511F041E0AC
:1027800050E060911D0170911E016C5A794FCE018D
:1027900005960E94D7316091500670915106809144
:1027A0005206909153060E94570D643671058105BB
:1027B000910538F485E596E00E94460E9D818917C3
:1027C000C1F181E090E00E94BA30811509F43FC068
:1027D00080912401482F50E0853010F044E050E013
:1027E00060912501709126016C5A794FCE010196B6
:1027F0000E94D73185E596E00E94460E9D8189139F
:1028000026C00E94290D6093500670935106809354
:1028100052069093530689819A81AB81BC81809343
:102820004C0690934D06A0934E06B0934F0681E060
:102830000FC08091550690915606A0915706B09111
:10284000580689839A83AB83BC831111E4CF80E05F
:1028500040914C0650914D0660914E0670914F0686
:10286000F70140835183628373830F900F900F9021
:102870000F900F90DF91CF911F91FF90EF900895EF
:10288000A0E0B0E0E6E4F4E10C9448310E94350D9C
:102890006093E0037093E1038093E2039093E3037A
:1028A0002091C406D22FD370D11519F0D22FD6950E
:1028B000D69530914601323009F40AC180F43111C5
:1028C00016C0109200016093E4037093E5038093B7
:1028D000E6039093E70381E08093460103C0333021
:1028E00009F4FEC0CDB7DEB7ECE00C946431809102
:1028F0000401D8131EC023704091030150E081E011
:102900002417150609F480E0809302018091C9061E
:1029100090910101981739F08093010140E060E047
:1029200080E00E94350CD11531F0D13071F080E09B
:1029300030C081E0E9CF809102018115C1F340E010
:1029400060E080E00E94350CF2CF809100010E948F
:10295000550C982EA92EE090C506B090C606E091C1
:10296000C706F0E0E85DF64FB11025C0E491CE2F28
:102970001E2F0E2FE92CF12C90916C06AE1411F045
:1029800008F088C081E0911509F49FC0ABE1AA1658
:1029900070F6909100019F5F909300018111A2CF8A
:1029A00082E0809346018091020181119BCFD11179
:1029B00099CF83E091CF0E2D10E0CB2CD12CE49158
:1029C000CE2F26E0E29E700111242FEF30E0C701E8
:1029D000B9010E942E31000F111F45E5469FC0012D
:1029E000479F900D1124081B190B402F440F400FD7
:1029F000C9018C199D096C01EC9DC001ED9D900DE4
:102A00001124192FB49E60011124CD2CDD24D9018D
:102A1000AC19BD096D01EC9DD001ED9DB00D1124E7
:102A20006901C41AD108A601B49E6001B59ED00CFC
:102A30001124CD2CDD242C193D09E29FA001E39F38
:102A4000500D1124052F63307105D1F02CEFE216E3
:102A500023E0F20658F461307105B1F0623071057F
:102A600009F088CFC92F152F0E2F84CF6430710540
:102A700071F06630710509F47DCF092F1B2F7ACFD5
:102A80000B2FC92F1E2F76CF0E2FCB2F73CFC52F15
:102A9000092FF8CFF701E35DFD4F808120910101FF
:102AA0008223811571F0F701911105C08BE1E816C1
:102AB000F1040CF07B97212F402F6C2FCF010E9447
:102AC0006B0C9FEFE91AF90A57CFB6E3AB1660CF4C
:102AD000D09304012370209303010E946A0F69CFF1
:102AE0008091CC06811551F048E050E067E170E03C
:102AF00084EC96E00E94FE311092CC068090E403B4
:102B00009090E503A090E603B090E70380916B06F8
:102B1000811581F0C501B4010E94570D6B017C0144
:102B200020E1C216D104E104F10408F4DBCE1092D6
:102B30004601D8CE0E94350D6B017C01C818D9081A
:102B4000EA08FB08EDCFAB0124E630E0BC0188E7E2
:102B50000E94D62E9C0181E0232B09F080E008958D
:102B600080913A068115B9F080913706811599F068
:102B700062E070E08FE292E00E94A315811109C02B
:102B80008AE192E09F938F930E947E080F900F90AE
:102B9000089510923706089580913A06811541F103
:102BA0000E94290DDC01CB01805A9541AF4FBF4FE8
:102BB0008093330690933406A0933506B09336067F
:102BC00080913706811114C062E070E088E192E0E4
:102BD0000E94A315811109C084E092E09F938F9316
:102BE0000E947E080F900F90089581E08093370631
:102BF0000895CF93DF93682F81E06A3019F06D302C
:102C000031F480E00E947916DF91CF910895809190
:102C100005049091060426E0FC01AAE1B3E00190CE
:102C20000D922A95E1F7603E08F458C026E0FC01B9
:102C300011922A95E9F7C0910504D091060446E067
:102C400050E0BE018AE193E00E94CA319E012F52FA
:102C50003440892B41F1C90145E0969587954A9505
:102C6000E1F741E050E0BA0102C0660F771F8A9594
:102C7000E2F7CB016091310670913206862B972BDB
:102C8000B9016B5F7F4FE5E076956795EA95E1F7CF
:102C900002C0440F551F6A95E2F7842B952B909341
:102CA0003206809331062A5F3F4F40910704642F1C
:102CB00070E0C9010E942E31481B463010F4240FE9
:102CC000311D211572E0370710F020E030E0215D62
:102CD0003B4F309306042093050496CFF6E06F9F98
:102CE000B00111246F5C7D4F46E050E00E94C1317D
:102CF000A2CFCF93382FE0910504F0910604EF5254
:102D0000F44020910704622F70E0CF010E942E3121
:102D1000281B822F311561F066E00E947931C82F9F
:102D2000C15010F4CF91089580E20E94F915F8CFB8
:102D30008E0F9F2F911D811522E0920710F080E0E9
:102D400090E0815D9B4F9093060480930504EACF49
:102D5000CF93DF93EC01FE018491811103C0DF91D9
:102D6000CF9108950E94F9152196F5CF0E94A816DB
:102D700081E00E94791608951F921FB61F921124B8
:102D80008F939F93AF93BF938091F203811113C0F0
:102D90008091360390913703A0913803B0913903A5
:102DA0004196A11DB11D8093360390933703A093E4
:102DB0003803B0933903BF91AF919F918F911F90CA
:102DC0001FBE1F9018952FB7F894809136039091ED
:102DD0003703A0913803B09139032FBF0895809134
:102DE000CD0683FF96C08EEC98E09F938F930E9450
:102DF0007E088091B9061F928F9389EC98E09F938B
:102E00008F930E947E0887EC98E09F938F930E9497
:102E10007E088091BA06282F082E000C330B3F93B2
:102E20008F9384EC98E09F938F930E947E0882ECAE
:102E300098E09F938F930E947E088091BB06282F75
:102E4000082E000C330B3F938F938FEB98E09F93EA
:102E50008F930E947E088DEB98E09F938F930E9442
:102E60007E088091BC06282F082E000C330B3F9360
:102E70008F938AEB98E09F938F930E947E0888EB54
:102E800098E09F938F930E947E088091BD06282F23
:102E9000082E000C330B3F938F9385EB98E09F93A4
:102EA0008F930E947E0882EB98E09F938F930E94FD
:102EB0007E088DB79EB780960FB6F8949EBF0FBE62
:102EC0008DBF8091B6061F928F938FEA98E09F93F3
:102ED0008F930E947E088DEA98E09F938F930E94C3
:102EE0007E088091B7061F928F938AEA98E09F939D
:102EF0008F930E947E0887EA98E09F938F930E94A9
:102F00007E088DB79EB70C960FB6F8949EBF0FBE85
:102F10008DBF0E94E3162091BA063091BB06232B89
:102F2000211521F080933D0690933E062091BC062A
:102F30003091BD06232B211521F080933B06909301
:102F40003C06E0919306F0919406309749F082E0B8
:102F50008093B8060680F781E02D88EB96E009950E
:102F60000895611509F44BC0E3E3E80FE33150F431
:102F7000F0E0EC5CFD4C0C94BB310E94840C81951C
:102F80008093BB060E94EF1608950E94840CF8CF30
:102F90000E94840C81958093BA06F4CF0E94840C21
:102FA000FACF0E94A40C8093BC06ECCF0E94A40C24
:102FB0008195F9CF0E94A40C81958093BD06E2CF44
:102FC0000E94A40CFACF815D990B21E030E001C092
:102FD000220F8A95EAF78091B906822B8093B90671
:102FE000D1CF8091B70681608093B706CBCF809117
:102FF000B7068260F9CF8091B7068460F5CF409123
:10300000BA068D3C59F48091BB0687FF0DC0109223
:10301000BB06411559F41092B60608C08E3C81F4E7
:103020008091BB0618169CF3411581F08091BC0677
:103030009091BD06892B8111A5CF1092B506A2CF24
:103040008F3C41F447FFF0CF1092BA068091BB0647
:103050008115E0CF803D19F41416B4F3E5CF9091BB
:10306000BC06893D29F41916FCF61092BC06DCCF8B
:103070008A3D19F497FFD8CFF8CF9091BD068B3DCC
:1030800029F497FFD1CF1092BD06CECF8C3D19F415
:103090001916CCF3C9CF9FE2980F983090F4815D58
:1030A000990B21E030E0B90102C0660F771F8A95C5
:1030B000E2F7CB0180959091B90689238093B906F8
:1030C000B3CF8D3D31F48091B7068E7F8093B706E4
:1030D000ABCF8E3D21F48091B7068D7FF7CF8F3D2A
:1030E00009F0A2CF8091B7068B7FF0CFCF93C82F86
:1030F0008115D1F08CEF8C0F813AA0F580914301BE
:10310000813021F48091D60687FD10C0E8EEF2E010
:103110008191C81709F122E0EE3EF207C9F78C2F22
:103120000E946E100E94FD11CF910895EC2FE6953C
:10313000E695E695F0E0E251FD4F828190E04C2F5C
:10314000477021E030E002C0220F331F4A95E2F7BA
:1031500082239323892B19F38C2F0E94B3100E9492
:10316000FD11DDCF80E28C0F883068F4C77081E0FC
:1031700090E001C0880FCA95EAF7C091CE06C82B2F
:10318000C093CE06CFCF8BE58C0F833038F42C2F35
:103190002452330BC9010E94DA0CC6CFE8E5EC0FCC
:1031A000EB3150F4F0E0EE0FFF1FE355FD4F80814F
:1031B00091810E94000DB8CF83E38C0F833108F01A
:1031C000B3CF61E08C2F0E94B117AECF811581F192
:1031D0009CEF980F913A28F40E94B3100E94FD11C1
:1031E000089590E2980F983050F4877091E001C0F4
:1031F000990F8A95EAF7892F0E947409EFCF9BE512
:10320000980F933028F480E090E00E94DA0C089543
:1032100098E5980F9B3128F480E090E00E94000D23
:10322000089593E3980F933118F460E00E94B1176A
:1032300008951092CE0680914301813039F5809136
:10324000D60687FF23C0E0EFF2E08EE1DF011D929A
:103250008A95E9F780E090E00E94DA0C80E090E047
:103260000E94000D1092D8060E94FD1186E0E8EB46
:10327000F6E0DF011D928A95E9F71092B6061092EA
:10328000B5061092B7060E94EF160895E8EEF2E038
:1032900086E0DCCF0E9419192FEF84E39CE02150D7
:1032A00080409040E1F700C0000088E19AE00FB64E
:1032B000F894A895809360000FBE90936000FFCFB4
:1032C000AAE2B0E0E6E6F9E10C94513184E293E041
:1032D000FC0101962091F100208323E08C329207BB
:1032E000B9F780912503893009F45AC0C8F48230B7
:1032F00009F4B6C0833009F485C0813091F1809122
:10330000E80083FFEAC080912403909125039A305E
:1033100008F0E3C0E92FF0E0E95BFD4C0C94BB3111
:103320008A3009F48CC08B3051F7809124038132AC
:1033300031F78091280390912903892B01F780911F
:10334000E800877F8093E8000E94D70D81E090918C
:103350002603911101C080E0809343010E94191956
:10336000CECF80912403813A51F68091E800877F87
:103370008093E8008091280390912903892B61F0C4
:1033800060E080E090E070E00E947E0D8091E800B7
:103390008B778093E800B3CF68E08EE293E0F3CFC1
:1033A00080912403813209F0AACF80912803909163
:1033B0002903029708F0A3CF8091E800877F8093CC
:1033C000E8008091E80082FF18C09091F30080919E
:1033D000F200029731F48091F100813011F08630D3
:1033E00021F48091F100809342018091E8008B7775
:1033F0008093E8000E94D70D82CF8091F403811161
:10340000E0CF7DCF80912403813A09F078CF80917D
:10341000280390912903892B09F071CF8091E8004E
:10342000877F8093E8008091E80080FFFCCF809147
:1034300043018093F1008091E8008E77D9CF80918D
:103440002403813209F05BCF8091E800877F80936D
:10345000E8000E94D70D80912703809341014FCF50
:1034600080912403813A09F04ACF8091E800877F58
:103470008093E8008091E80080FFFCCF80914101BB
:10348000D8CF803889F0823841F5809128038F7039
:10349000873018F58093E9008091EB0085FB882741
:1034A00080F91092E90006C08091F303880F909193
:1034B0002103892B9091E800977F9093E8008093F7
:1034C000F1001092F1008091E8008E7723C0811105
:1034D00016C080912603813011F18091E80083FFAE
:1034E0000AC08091E800877F8093E8008091EB001C
:1034F00080628093EB00AA96E3E00C946D318230F9
:1035000061F780912603811589F01092E90080917E
:10351000E800877F8093E8000E94D70DDECF81E02E
:10352000933009F080E08093F303EFCF809128037C
:103530008F702FEF280F263080F68093E9002091BE
:10354000EB0020FFE2CF933031F48091EB008062FA
:103550008093EB00DACF9091EB0090619093EB00B9
:1035600021E030E0A90102C0440F551F8A95E2F71F
:103570004093EA001092EA008091EB008860E8CF67
:103580008111ABCF109126031F778091E3008078E3
:10359000812B8093E3008091E800877F8093E8008F
:1035A0000E94D70D8091E80080FFFCCF8091E3005E
:1035B00080688093E30083E0111101C082E0809372
:1035C000F4038BCF8058823008F087CF8091260398
:1035D000909127038C3D53E0950799F583E08A830A
:1035E0008AE289834FB7F894DE01139620E03EE02B
:1035F00051E2E32FF0E050935700849120FF03C085
:1036000082958F703F5F8F708A30C8F0895C90E040
:103610008D939D932F5F243161F74FBF8091E80018
:10362000877F8093E8006AE270E0CE0101960E94F5
:103630007E0D8091E8008B778093E8004ECF805D0F
:10364000E6CF292F33272330310509F44EC078F512
:103650002130310509F47DC084E590E0EDECF7E020
:103660002230310509F039CF2091E800277F2093DF
:10367000E80020912A0330912B038217930708F466
:103680009C0140E02115310509F068C0411166C078
:103690008091E80082FDCDCF8091F403811549F23D
:1036A000853039F28091E80083FFF2CFC2CF80915C
:1036B0002803909129032132310509F43BC02232BD
:1036C000310509F00ACF8330910508F006CFFC01DF
:1036D000EE0FFF1FEB57FE4F0190F081E02D8E574C
:1036E0009E4FDC018C9190E011C09C01332781300A
:1036F00089F022303105B1F0232B09F0EECEE3E55D
:10370000F8E0E4918E2F90E0E3E5F8E0009709F40B
:10371000E4CEAACFE1E4F8E0E4918E2F90E0E1E47A
:10372000F8E0F4CFE3E3F8E0E4918E2F90E0E3E3F8
:10373000F8E0ECCF8330910508F0CFCEFC01EE0F1E
:10374000FF1FE557FE4F0190F081E02D89E090E0EA
:103750008BCF82E190E0E1E2F8E086CF8091F40344
:10376000811509F466CF853009F463CF8091E800B4
:1037700083FD5FCF8091E80082FD8ACF8091E800D1
:1037800080FF80CF9091F3008091F20021153105E8
:1037900019F08830910550F041E0089709F040E0B9
:1037A0008091E8008E778093E8006CCF449140933D
:1037B000F1003196215031090196E8CF803809F0A7
:1037C0008CCE8091E800877F8093E800809122036F
:1037D0008093F10078CE811180CE109126031230B3
:1037E00008F07BCE8091E800877F8093E8001093FB
:1037F00022030E94D70D1115D1F084E08093F403C9
:1038000042E061EC81E00E945F0E42E261EC82E006
:103810000E945F0E42E261EC83E00E945F0E8091A5
:10382000F403843051F482E08093440156CE8091B9
:10383000E30087FDE2CF81E0E1CF81E0F5CF9C019D
:103840004FB7F8948091360390913703A0913803D5
:10385000B09139034FBF821B930B0895FF920F93D2
:103860001F93CF93DF93C42FD22F8115A9F04093DC
:10387000C2060E94E3169093190380931803C77041
:1038800081E001C0880FCA95EAF70E94C512CDB742
:10389000DEB7E5E00C946B318091C206481333C06B
:1038A00080911803909119030E941F1C8831914048
:1038B00050F510E21D0FCD17A9F0C770FF24F39447
:1038C0008F2D01C0880FCA95EAF70E94CF121830D9
:1038D00048F48D2F877001C0FF0C8A95EAF78F2D71
:1038E0000E94C512802F0E947618802F0E94E61831
:1038F000183068F6D77081E001C0880FDA95EAF7D2
:103900000E94CF12C4CFC77081E001C0880FCA9552
:10391000EAF7F6CFA0E0B0E0E0E9FCE10C944C312E
:103920007C01FC018481811509F477C061E0C70145
:103930000E94C10BEC01F7018581811509F4A7C430
:1039400091819093C10690819093C00690E29093EC
:103950004501D093BF06C093BE069E01305221158B
:10396000304220F5F7019681903128F0FE01FF27C3
:10397000ED33F10578F11092C2069E0130572332E3
:10398000310508F08FC484E090E00E94F8319093F4
:10399000D7068093D606FE01E150F047E232F105EA
:1039A00008F072C0EF5AFD4C0C94BB319E013054AC
:1039B00021153041B8F29E013A9521153F41B0F2F0
:1039C0009E01205A324520323105A8F2CD33D1056F
:1039D00030F4FE01EB5EF04FE491E0934501FE010F
:1039E000E851FC47E730F10530F658C406E221EE15
:1039F00041EE6AE17CE70E942E1C8091D50687701B
:103A0000811559F0F7018581811539F08091D7062C
:103A100082FF03C082E00E943509CDB7DEB7E8E03F
:103A20000C94683107E225EE45EE6BE17CE7E3CFCD
:103A300006E221EE40EE68E17CE7DDCF07E225EE0D
:103A400044EE69E17CE7D7CF06E221EE42EE6CE17D
:103A50007CE7D1CF07E225EE46EE6DE17CE7CBCFE8
:103A600008E221E045EE6EE17CE7C5CFC6312CE7E8
:103A7000D20709F0F2C08091C306811509F4BEC0D7
:103A800085E30E94B31022C48091D60681608093A2
:103A9000D6066091D6067091D70684E090E00E9429
:103AA0002C320E941919A9CF8091D7068860809383
:103AB000D706EFCF8091D6068260E9CF8091D606F7
:103AC0008460E5CF8091D6068860E1CF8091D706EB
:103AD0008160EDCF8091D7068260E9CF8091D606D4
:103AE0008061D5CF8091D6068062D1CF8091D606F5
:103AF0008064CDCF0E9419198091D6068068C7CF07
:103B00008091D6068C60C3CF8091D7068360CFCFDB
:103B10008091D6068E7FBBCF8091D706877FC7CF97
:103B20008091D6068D7FB3CF8091D6068B7FAFCFA5
:103B30008091D606877FABCF8091D7068E7FB7CF97
:103B40008091D7068D7FB3CF8091D6068F7E9FCF91
:103B50008091D6068F7D9BCF8091D6068F7B97CFA5
:103B60000E9419198091D6068F7791CF8091D60641
:103B7000837F8DCF8091D7068C7F99CF8091D60699
:103B8000992782FF939590FB82F990FB83F97FCF71
:103B90008091D706982F909590FB80F990FB81F942
:103BA00086CF9091D606892F8F7B96FF80646FCF4A
:103BB0000E9419199091D606892F97FB87F9805892
:103BC00066CF61E08EE090E00E940E3262CF60E04E
:103BD000F9CF9091D606892F8F7E94FF806157CFC1
:103BE0009091D606892F8E7F90FF816050CF909163
:103BF000D706892F877F93FF886059CF89E241CF0D
:103C00009272FE01E052F847EB30F10508F06EC009
:103C1000ED58FD4C0C94BB310E944410EECE911532
:103C200009F449C00E941B11E8CE911509F449C05E
:103C30000E946111E2CE911509F449C00E947811E9
:103C4000DCCE911509F449C00E949211D6CE91158F
:103C500009F449C00E94C811D0CE9091CE0692724C
:103C6000FE01E054F847ED30F10508F03FC0E2589E
:103C7000FD4C0C94BB318091C4068370811102C04D
:103C8000109246018091C4068C7F81608093C406A7
:103C90008091CC0681608093CC06AFCE8091C40623
:103CA00083708111109246018091C4068C7FEECF03
:103CB000911509F4B7CF0E9417119FCE911509F401
:103CC000B7CF0E94571199CE911509F4B7CF0E9432
:103CD0006B1193CE911509F4B7CF0E9485118DCE4B
:103CE000911509F4B7CF0E94BD1187CE9E01205EC9
:103CF000324520323105A8F481112AC0CF7181E00C
:103D000090E0FC0102C0EE0FFF1FCA95E2F7EF0141
:103D10006E2F83E090E00E940E32CE010E94970841
:103D20006CCE8115A9F0C330FCE7DF0709F490C021
:103D300008F05BC0C1303CE7D30709F48FC0C23044
:103D40008CE7D80709F46EC0C115DC4709F45DC0E3
:103D5000F701858100811181811509F48AC0C801AC
:103D60000E948D0BC82F682FC8010E94C308B8019C
:103D70008C2F0E947C090E948A0AD82FC92FF70134
:103D8000D580C680C2948FE0C8228091D506877006
:103D90008115F9F00D2DD114E9F0892F807F803441
:103DA00061F080E28D0F8830A0F0892F807E803214
:103DB00021F4D23070F0C11461F08091D70682FFF7
:103DC00008C082E00E9435098091D506877001E025
:103DD000811100E0EC2FE295EF70C03C08F0AFC01D
:103DE000F0E0E557FD4C0C94BB31CB35ECE7DE073A
:103DF000F1F1CC35FCE7DF0799F181E0CA35DC470A
:103E000009F0A6CF0E94D311A3CF0E9419193FEF4A
:103E100084E39CE0315080409040E1F700C0000016
:103E20000E946D0D9091CD06892F8E7F90FF81604D
:103E30008093CD0680FF09C083E69FE09F938F9318
:103E40000E947E080F900F90D8CD81E59FE0F6CFBD
:103E50006FEF7FEF80E090E00E942C320E944A19C1
:103E60008091D706002482FF0394802DCBCF80E081
:103E7000C9CFC8010E94F808C82F79CF1C2F1F7026
:103E8000C03110F01295107FD114B9F0111569F0FE
:103E900080E28D0F883010F0D11109C08091CE06DC
:103EA000812B8093CE060E94FD118D2F40C0809102
:103EB000D806812B8093D806F6CF8D2F0E94E61866
:103EC0001115E9F180E28D0F883010F0D11104C096
:103ED000812F0E94740906C010958091D806812315
:103EE0008093D8060E94FD112AC01C2F1F70C07F2E
:103EF000C03211F01295107FD11549F0D13009F47C
:103F00006BC0D11409F477C0C114C9F1CECF809130
:103F1000D70682FD30C0D11469F0111539F08091B7
:103F2000CE06812B8093CE060E94FD1180E00E9478
:103F3000761805C080E00E94E6181111C9CF01155E
:103F4000A9F08091D50680FD11C0F70115828695F4
:103F5000869586950E94A108C7010E948A1C8091BF
:103F6000D5068695869586950E94B10860E0C701C2
:103F70000E94C10B52CDD11499F0C11004C0812F01
:103F80000E94C512DCCFF1E0CF12D9CF8091CF06CD
:103F9000912F9823191799F2812B8093CF06CFCFB9
:103FA000C110CDCF812F0E94CF129091CF06812FCB
:103FB0008923811529F0812F809589238093CF064D
:103FC0008091D006912F9823911509F4B8CF1095C0
:103FD00018231093D006B3CFD11429F026E0C216CF
:103FE00008F0ADCFCCCF35E0C31608F0A8CF812FB5
:103FF0000E94CF12A4CFC114D1F3D93349F48FEF6B
:1040000097EEE3E081509040E040E1F700C000000F
:104010008D2F0E94E61893CF8C2F869586958370FE
:10402000811569F0813009F08ACF8D2F9C2F937014
:10403000D11002C080E090E00E94000D80CF8D2F53
:104040009C2F9370D11002C080E090E00E94DA0CA7
:1040500076CF6D2D8D2F0E94B11771CF8C2F83706D
:10406000811142C0D1102FC04D2F42954695477007
:10407000440F440F2D2F2F7030E0042E02C0220F6A
:10408000331F0A94E2F780E090E0D4FF09C08FE08C
:1040900090E002C0880F991F4A95E2F780959095AD
:1040A000C695C695C370C230B1F0C33089F0409157
:1040B000D1065091D206C13049F0822B932B842334
:1040C00095230E9497080E94C90C39CF242B352BC9
:1040D000822B932BF6CF822B932B2091D1063091FC
:1040E000D20682279327EDCFD11491F1C0FFEBCFF9
:1040F0004D2F429546954770440F440F2D2F2F703A
:1041000030E0042E02C0220F331F0A94E2F780E051
:1041100090E0D4FF09C08FE090E002C0880F991FA3
:104120004A95E2F780959095C695C695C370C230C2
:10413000C1F0C33099F04091D3065091D406C130FC
:1041400059F0822B932B842395230E949C08BBCF8C
:10415000823008F4B8CFCCCF242B352B822B932B75
:10416000F4CF822B932B2091D3063091D406822753
:104170009327EBCFCF70D11439F08C2F0E94A10878
:104180008D2F0E94C5129FCF8D2F0E94CF128C2F92
:104190000E94B10898CFD23FB1F170F4D03FC9F07E
:1041A000D13F91F0D11409F45EC0C11409F458C094
:1041B0008D2F0E94761887CFD33F61F1D43F91F7BE
:1041C0009091D70692FD34C08C2F8F71D11401F3DA
:1041D0001EC0D114A9F0F5E0CF1608F074CFCF714E
:1041E00081E090E09C0102C0220F331FCA95E2F7E4
:1041F000E9018091D3069091D40682279D27A5CF0F
:1042000036E0C316EACF8C2F8F71D110C1CF0E9438
:10421000A10859CF80E090E0D11409F496CFCF7176
:1042200081E090E002C0880F991FCA95E2F78DCF18
:10423000D11461F08C2F8F7192FFE9CF982F990FD5
:10424000990F990F93609093D506E1CF81E00E947A
:10425000350982E0C81608F436CF0E94350933CFFD
:104260008C2F8F71D4CFC11479F0D93349F49FEFDB
:10427000E7EEF3E09150E040F040E1F700C00000CD
:104280008D2F0E94E6181FCF8C2F8F7181CFFE01DA
:10429000E851FC47E730F10508F0E8CBE956FD4C62
:1042A0000C94BB319091CE06C631FCE7DF0709F0D4
:1042B000A7CC9A7A81E0911101C080E08093C30677
:1042C00085E3911101C089E20E946E100E94FD11E8
:1042D00094CBA0E0B0E0EFE6F1E20C944D31809198
:1042E0001907803108F059C080911807811509F429
:1042F00054C0E091DA0687E0D82E8091D9068E1757
:1043000009F44BC0CE2FD0E0DE9EF0011124E5521F
:10431000F94F8481811509F448C091818091140777
:10432000981343C090818091130798133EC08581F4
:1043300081113BC0E280F3808091150790911607B0
:10434000E81AF90A60E083E197E00E94C10B8C0152
:10435000093082E2180721F00D3082E3180711F5C9
:1043600088EC90E0E816F90600F5809119078F7047
:1043700080618093190787E08C9FF0018D9FF00D7D
:104380001124EF51F94F80818F708061808383E128
:1043900097E00E948A1C0E942B09CDB7DEB7E7E0A8
:1043A0000C94693188E191E0DDCFFE013196E77030
:1043B000A4CFADE0B0E0EFEDF1E20C9445318C011B
:1043C00086E0F801DE01189601900D928A95E1F7DA
:1043D000D80115966C90159714965C9080911707EC
:1043E000811121C05114E1F0611409F446C1C801E2
:1043F0000E94F00B811509F440C187E0F801A3E1A8
:10440000B7E001900D928A95E1F7B1E05B1206C02A
:1044100080911307909114070E94E10B0E9469217B
:10442000FF24F3946EC0F801C280D3807090180707
:1044300080911507909116074601881A990A711400
:1044400009F4E9C0F080E18060E083E197E00E9438
:10445000C10B5C018930924229F08DE0A81682E3FD
:10446000B80651F588EC90E08816990608F0A8C0C7
:104470005114B1F290911407D80111962C91119713
:1044800080911907803108F05DC0291318C0209170
:1044900013079C91291313C061104EC08F70806167
:1044A0008093190783E197E00E948A1C8091190785
:1044B000F8018683F12C25C088E191E0D5CF611009
:1044C0003BC040E06E2D8F2D0E94EA0E40E06E2D25
:1044D0008F2D0E94EA0EF82E8111ECCF88859985E8
:1044E0000E94E10B292F22952F70903478F49F7051
:1044F0002230A8F09115B9F0D80116969C91903110
:1045000090F48F2D2D96EFE00C9461312A5F2F707F
:10451000223068F0C8010E948A1CF72CF2CF911556
:1045200011F0811571F3805E883058F3F3CF803F2E
:1045300040F3815F8330F9CF8091190781608093C8
:104540001907B8CF291315C020911307F8019081DE
:1045500029130FC061100DC08683C8010E948A1CF8
:1045600087E0F801A3E1B7E001900D928A95E1F7A9
:1045700057CFC8010E94F00B811509F47EC0611469
:1045800009F47BC080911907803288F020911307CD
:10459000309114073A832983DC82CB8290911707EC
:1045A0009D831E828F83CE0101960E948A1C87E024
:1045B000F801A3E1B7E001900D928A95E1F72ECFC3
:1045C00083E1E82E87E0F82E80911907803148F4C6
:1045D000C7010E948A1C87E0D7011D928A95E9F7DE
:1045E00069CF511409F41CCF20911407F80191816F
:1045F0002913BFCF2091130790812913BACF6110DF
:10460000B8CF8683C8010E948A1C87E0D7011D921B
:104610008A95E9F705CF60E083E197E00E94C10B3E
:104620007C018930924239F088E191E0EDE0EE16AC
:10463000E2E3FE0611F488EC90E08816990608F58E
:10464000511409F4EDCE6114C1F090911407D80112
:1046500011968C911197981306C0909113078C9125
:10466000981709F47DCFC8010E94F00B81119FCFEC
:1046700080911907816080931907C8010E948A1CE4
:10468000CFCE87E0E3E1F7E0DF01A7CFABE1B0E019
:10469000ECE4F3E20C9450314E8B5F8B688F798F92
:1046A0008A8F192F9B8F91111092D8061D8A86E050
:1046B000FE017696DE011F9601900D928A95E1F734
:1046C0000A8D011539F00B8B1C8B61E0CE010F9622
:1046D0000E94C10B0B8B1C8B87E0FE013F96DE0115
:1046E000189601900D928A95E1F7CE0108960E94E6
:1046F000D921811128C02091D9063091DA0687E0AE
:10470000FE013896DE01119601900D928A95E1F72F
:104710008C858115C1F0822F90E0019687709927D2
:1047200038171906D9F097E0929FD0011124A552AD
:10473000B94FFE01319601900D929A95E1F7809361
:10474000D9060E942B0917E08091DA069091D906CC
:10475000891312C06B96E4E00C946C310E94191915
:104760001092D9061092DA0687E0E3E1F7E0DF0164
:104770001D928A95E9F7E7CF189FC0011124855251
:10478000994F0E94D921811529F38091DA0690E092
:104790000196877099278093DA06D6CFA6E0B0E01D
:1047A000E4EDF3E20C9450310E94E3168C01809109
:1047B0007106909172068017910779F019821A821A
:1047C0000E94E316BC0149815A8180E090E00E947A
:1047D000462310937206009371062696E4E00C942B
:1047E0006C31ACE0B0E0E7EFF3E20C944331FE0152
:1047F000319688E0DF011D928A95E9F783E6E82E7D
:1048000082E0F82E8F0197E6692E92E0792E2F0133
:10481000AA24A394B12C3DE6832E32E0932EF70117
:1048200081917F018F3F09F43EC0F894E82FE29513
:10483000EF70F0E021A18F70A50102C0440F551F59
:104840008A95E2F7CA01922F982B91A392A18095A5
:10485000892382A3789400C0E7E6F2E031E0312CAE
:1048600021912F3F79F0A22FA295AF70A05EB0E00A
:104870008C9190E02F7002C0959587952A95E2F76C
:1048800080FF82C080E0382A330F8E169F0641F7E2
:10489000F70182918F3F11F00E941C0C50EA5A954B
:1048A000F1F7D8013C920F5F1F4F6E147F0409F09F
:1048B000B6CF48E050E0B20188EE93E00E94CA31E2
:1048C0006C01892B41F088E0F201A8EEB3E0019081
:1048D0000D928A95E1F70091F10310E00B501C4F07
:1048E000C114D10409F452C081E0809317030E94DF
:1048F000E316909316038093150380916B06811540
:1049000009F4C6C07E01B9E0EB0EF11C84E0F701AA
:1049100011928A95E9F7D0906A06FAE0DF1608F05E
:1049200057C026EA33E141E551E0B701C8010E94D2
:10493000F60F811509F470C027E733E14EE551E029
:10494000B701C8010E94F60F811509F465C026ED74
:1049500032E14CE651E0B701C8010E94F60F811523
:1049600009F45AC026E833E147E751E0B701C8012E
:104970000E94F60F811509F44FC04AE0D41608F0E2
:104980007AC010926A0664C0832F7DCF809117038E
:10499000811509F4B2CF80911503909116030E94FE
:1049A0001F1C059708F4A9CF44E050E068EE73E0BF
:1049B000C8010E94CA31892B41F084E0E8EEF3E09F
:1049C000D80101900D928A95E1F71092170395CFC7
:1049D00080911203909113030E941F1C843F914009
:1049E00008F09FCF80911403811509F440C084E042
:1049F000D7011D928A95E9F710921403E091F00314
:104A0000F0E0EB50FC4F89859A85AB85BC858083AF
:104A10009183A283B3832BC080916A068F3F99F460
:104A20000E94E31690931303809312038091CD06A6
:104A300080FFD8CF8EEC91E09F938F930E947E08E9
:104A40000F900F90CFCF8F5F80936A068A3040F728
:104A50008091F00390E044E050E0B7018B509C4F10
:104A60000E94CA3121E020931403892B39F62C9639
:104A7000E1E10C945F318091CD0680FF82CF8BEB1A
:104A800091E09F938F930E947E080F900F9079CFB3
:104A9000E090F003F12CF701EB50FC4F7F01F8019F
:104AA00080819181A281B3818093550690935606AF
:104AB000A0935706B093580685E596E00E94460EEF
:104AC000809354068091590690915A06A0915B06F6
:104AD000B0915C06F70180839183A283B383C09079
:104AE0005D06D0905E06E0905F06F09060068091D3
:104AF0000E0390910F03A0911003B0911103C816FB
:104B0000D906EA06FB06B1F0C0920E03D0920F035D
:104B1000E0921003F09211030E94290DC61AD70AE1
:104B2000E80AF90AC0926D06D0926E06E0926F060E
:104B3000F092700688E0E1E6F6E0A4ECB6E00190C1
:104B40000D928A95E1F793CFCDB7DEB760970FB698
:104B5000F894DEBF0FBECDBF85B7806885BF85B72F
:104B6000806885BF84B7877F84BF0FB6F894A89507
:104B700080916000886180936000109260000FBE99
:104B800080E890E00FB6F894809361009093610004
:104B90000FBE81E08093440189E09FE09093E5029D
:104BA0008093E4020E94270E0E948F0E8091E20003
:104BB00084608093E20078948091F403811599F0E9
:104BC0008091E9001091EC008F70179511271795CF
:104BD000182B1092E9008091E80083FD0E94601973
:104BE0001F701093E90082E084BD93E095BD9AEFB9
:104BF00097BD80936E0010926D0610926E06109213
:104C00006F061092700688EC90E02091E30027FD7B
:104C10000EC0AFE3BCE91197F1F700C000000197A7
:104C2000A1F70E94270E1092F40380E001C081E0FA
:104C300080936B0691E0982790936C069093050102
:104C400081110E94CC2F809105018091050191E096
:104C50008927880F880F8093F10394E0981B909325
:104C6000F00384E90E941C0C86E60E941C0C87E974
:104C70000E941C0C86EC0E941C0C07E612E0F80156
:104C800081918F018F3F11F00E941C0CF2E00D36D4
:104C90001F07A9F788E0E5EFF3E0DF01282F1D9259
:104CA0002A95E9F7E8EEF3E0DF011D928A95E9F72E
:104CB00080E090E00E94F831853E9E4F09F461C08B
:104CC00065EE7EEF80E090E00E942C3260E082E0B2
:104CD00090E00E940E3281E090E09093D2068093A3
:104CE000D10661E083E090E00E940E3260E074E162
:104CF00084E090E00E942C3260E086E090E00E9428
:104D00000E3260E087E090E00E940E3240E050E01A
:104D1000BA0188E090E00E94203260E083E290E0F7
:104D20000E940E3260E08CE090E00E940E3260E063
:104D30008DE090E00E940E3219821A821B821C8242
:104D40001D821E821F82188648E050E067E170E0F5
:104D5000CE0101960E94FE3140E050E0BA018FE1A1
:104D600090E00E94203240E050E0BA018FE090E0F5
:104D70000E94203240E050E0BA0183E190E00E94BE
:104D8000203282E090E00E94F0318093CD0684E0F2
:104D900090E00E94F8319093D7068093D6060E9447
:104DA000F123EFEFF6E721E0E150F0402040E1F79A
:104DB00000C000000E94F123E0916C0611E0E127A1
:104DC000EE0FEE0FF0E0EB50FC4F808181FF08C04A
:104DD0006FEF7FEF80E090E00E942C320E946D0D1B
:104DE00083E090E00E94F03190E00E9497080E94DA
:104DF000690C1093CC0648E050E067E170E084EC69
:104E000096E00E94E0311092CC068091C406843076
:104E1000B8F58091CD0680FF14C088E39BE09F9396
:104E20008F930E947E088091CD060F900F9080FF97
:104E300008C088E29AE09F938F930E947E080F90AB
:104E40000F9085E08093C4068091470190914801BE
:104E5000A09149018093C5069093C606A093C7060A
:104E60008FE78093C8068FEF8093C90648E050E033
:104E700067E170E084EC96E00E94FE311092CC066F
:104E80008091CD0680FF89C08EE19BE09F938F9338
:104E90000E947E088091CD060F900F9080FF7DC00C
:104EA0008091C40683701F928F938FEF9AE09F9337
:104EB0008F930E947E088091CD060F900F900F90E7
:104EC0000F9080FF6AC08091C406869586951F92D8
:104ED0008F9382EE9AE09F938F930E947E08809139
:104EE000CD060F900F900F900F9080FF56C08091CD
:104EF000C5061F928F9384EC9AE09F938F930E9434
:104F00007E088091CD060F900F900F900F9080FF3C
:104F100044C08091C6061F928F9386EA9AE09F93C1
:104F20008F930E947E088091CD060F900F900F9076
:104F30000F9080FF32C08091C7061F928F9388E840
:104F40009AE09F938F930E947E088091CD060F90E8
:104F50000F900F900F9080FF20C08091C8061F9285
:104F60008F938AE69AE09F938F930E947E088091A8
:104F7000CD060F900F900F900F9080FF0EC0809184
:104F8000C9061F928F938CE49AE09F938F930E949F
:104F90007E080F900F900F900F9080916B0691E01C
:104FA0008927880F80932F0680E8809307040E944A
:104FB000512E6BE070E085E19CE00E94A315811109
:104FC0002CC089EF9BE09F938F930E947E080F90E7
:104FD0000F9080916B06811102C00E94CF2F86E056
:104FE00091E09093940680939306CE0101968D876D
:104FF0009E878091F403853009F09DC08091CD0695
:1050000080FF08C080E29CE09F938F930E947E08FF
:105010000F900F9010E402E185C080912F0665E0AB
:1050200070E081FD09C084EF9BE00E94A31581110F
:105030000CC08EEC9BE0C7CF89EC9BE00E94A315CF
:10504000811103C081EB9BE0BECF6DE070E084EA8C
:105050009BE00E94A315811103C08DE89BE0B3CFB4
:105060000E94290DDC01CB01805A9541AF4FBF4F03
:105070008093330690933406A0933506B09336069A
:10508000EFE2F4E080E092E0DF019C011D9221500C
:105090003040E1F7F0930604E09305048FEF9FEFB3
:1050A000909332068093310681E080933A06809394
:1050B0003706109230068DCF8091F403843039F199
:1050C0000E9440140E94B0151092F20388E190E013
:1050D0000FB6F894A895809360000FBE10936000FF
:1050E00083B7817F846083BF83B7816083BF7894F7
:1050F000889583B78E7F83BF0FB6F894A89580916B
:105100006000886180936000109260000FBE0E9472
:10511000F123E5EFF3E08191811192C393E0ED3F3C
:10512000F907C9F78091F403853009F4C5CF0E94CF
:1051300019190E94C90C0E94F1239DEF492E93E09A
:10514000592E25EF222E23E0322ED101F20191912A
:105150008D9125E034E02E173F0709F440C09817E1
:10516000B1F38091CD0681FD01C1C0906B0610E0C6
:10517000D1010D911D01F201D1902F01D01639F10D
:10518000D026F12CEE24E3948D2D8E218115C1F0D3
:10519000C114B1F0F9821A830E94E3169C838B83B9
:1051A000F1E0FD8391E0802F8E21811101C090E01C
:1051B0009E8349815A816B817C818D810E94462327
:1051C000F394EE0C26E0F212DFCFF20102931F5FA0
:1051D000183071F60E94350D9924939405C09813E8
:1051E000C0CF0E94CE23912C0E94401480913A0699
:1051F000811509F41BC280913806909139060E94EE
:105200001F1CC29708F484C00E94E31690933906CD
:10521000809338068FE294E090930604809305040F
:1052200080916B06811509F429C18DEB9CE00E94E9
:10523000A8164091D3063091D406832F90E028E041
:10524000311103C020E0842F932FAC0174E05695F8
:1052500047957A95E1F74115510511F02C5FCA0188
:10526000AC0156954795569547954115510511F056
:105270002E5FCA0196958795820F823009F4C0C0CF
:1052800008F0B6C08111B9C085EB9CE00E94B6164B
:105290008091C106805D0E94F9158AE99CE00E9418
:1052A000A8168091C006805D0E94F91586E99CE0F1
:1052B0000E94A816C090BE06D090BF068091100133
:1052C00090911101C816D90609F0A0C080910E0472
:1052D000803209F09BC0E8E0F4E08F0181918032D8
:1052E000E1F3F80101900020E9F79F012150310915
:1052F00079010E151F0508F4BBC084E99CE00E94EB
:10530000A816809145010E94F91581E00E94791646
:105310008091310690913206892B09F46EC18091FB
:105320003A06811509F469C180913006811165C181
:105330000E94CC152091310630913206211531059D
:1053400009F45BC110E041E050E0812F90E07A0168
:10535000012E02C0EE0CFF1C0A94E2F7B701622393
:105360007323672B09F08FC01F5FEFCF85E49CE0AC
:105370009F938F930E947E080F900F90E5EFCE2EA3
:10538000E3E0DE2E00E010E0F0E48F2EFCE09F2E44
:10539000ADE3AA2EACE0BA2EB8E3EB2EBCE0FB2EB8
:1053A00086E3682E8CE0782E1F930F939F928F9246
:1053B0000E947E08BF92AF920E947E08D6018D9116
:1053C0006D010E9487081F928F93FF92EF920E94B7
:1053D0007E087F926F920E947E080F5F1F4F0FB66C
:1053E000F894DEBF0FBECDBF08301105E9F6BDCE83
:1053F000833049F08CE99CE049CF8FEA9CE046CFAE
:1054000089EA9CE043CF82EA9CE040CFD092110130
:10541000C092100180E280930E04E12CF12C1092D6
:105420000D043DE0A32E34E0B32E00E010E04AE08E
:10543000442E512C612C712CC701B601A30192019D
:105440000E949931605D603341F40115110529F026
:10545000CD28CE28CF2809F460E2D5016E935D01F6
:1054600069017A010F5F1F4F0530110529F733CF0E
:10547000D8018D918D010E94F9153BCF84E59CE008
:105480000E94A81645CF20912F0620FF91C0912F92
:10549000990F990F990F37E0390F80E023E090932F
:1054A000140180931701309315012093180124E60D
:1054B00030E047E050E062E171E088E70E94872E2B
:1054C000892B09F0A6C1B0E21B9FA0011124809195
:1054D0002F0680FF79C0EFE0F4E080E2DF011D924B
:1054E0008A95E9F7E1E7F2E0F88BEF870DE612E045
:1054F00085E7282E82E0382E97E0C92EBB24B3948E
:10550000AF85B8896D91B88BAF87F80181918F0114
:10551000840F952F911D9C01215D3B4F2901E62FA2
:10552000F0E0E15FFB4F20E030E08C2C821ADB2CB6
:10553000022E01C0DD0C0A94EAF7320190E0D3019B
:105540008D913D018D21682D691B677070E0B82F2A
:10555000062E01C0BB0F0A94EAF771956195710997
:105560006770772701C086956A95EAF78B2B608173
:10557000862B80839F5F983011F72F5F3F4F3196C6
:105580002830310591F6EF85F8892E163F0609F08F
:10559000B7CF04E610E020E230E04FE054E060E4F2
:1055A00088E70E94212F892BE1F085EC9CE033C134
:1055B0009695879596958795282F912F9295990F77
:1055C00090763FE1390F6BCF415D5B4F04E610E011
:1055D00020E230E060E488E70E94212F892B09F067
:1055E00021C1E094F09480913106909132068E2191
:1055F0009F21909332068093310680913706811562
:10560000A9F00E94290D00913306109134062091D3
:10561000350630913606601B710B820B930B6F3F82
:105620007F4F8F4F9F4710F40E94B01591100E943A
:10563000CC1586E0E8EBF6E0AD85BE8501900D92D5
:105640008A95E1F7D090B906F090BA061091BB06A2
:10565000E090BC060091BD061092BA061092BB06FF
:105660001092BC061092BD06812F8F29811509F476
:1056700042C080913D0690913E060E941F1C898782
:105680009A878091B60629853A85811509F4D3C099
:105690002531310580F18F3F19F08F5F8093B60679
:1056A000F11459F00E94840C91E01F140CF09FEF4C
:1056B000899F802D11248093BA06111559F00E94FC
:1056C000840C91E011160CF09FEF899F802D11241E
:1056D0008093BB068091BA06811569F0C090BB0625
:1056E000C11449F00E94760C8093BA068C2D0E945A
:1056F000760C8093BB06802F8E29811509F442C059
:1057000080913B0690913C060E941F1C8B879C87D2
:105710008091B506811509F488C0AB85BC85A1359B
:10572000B10580F18F3F19F08F5F8093B506E114CA
:1057300059F00E94A40C91E01E140CF09FEF899F79
:10574000802D11248093BC06011559F00E94A40CF1
:1057500091E010160CF09FEF899F802D112480930B
:10576000BD068091BC06811569F0E090BD06E1148C
:1057700049F00E94760C8093BC068E2D0E94760C18
:105780008093BD068091B906D81219C08091BA06DF
:10579000811511F08F1113C02091BB06211511F056
:1057A00012130DC09091BD06911511F0091307C099
:1057B0003091BC06311103C0822B892B81110E94CC
:1057C000EF1686E0ED85FE85A8EBB6E001900D9220
:1057D0008A95E1F70E94C90C182F80913F0618178F
:1057E00009F407CC10933F060E94290D8091CD0645
:1057F0008570853009F0FDCB1F921F938CE19DE0F1
:105800009F938F930E947E080F900F900F900F90A0
:10581000F0CB89EF9CE09F938F930E947E080F90BE
:105820000F90EBCE80EE9CE0F6CFEB85FC853B97AE
:1058300008F07ACFA7CF2B30310508F02ECF5BCF01
:105840008091F303811509F46DCCA0E1A9BD09BDD8
:1058500009B400FEFDCF8091D8008F7D8093D800E1
:105860008091E00082608093E0008091E00081FD03
:10587000FCCF0E94191956CC78941F921FB61F9224
:1058800011248F939F93AF93BF9380913603909190
:105890003703A0913803B09139030196A11DB11DC2
:1058A0008093360390933703A0933803B093390362
:1058B000BF91AF919F918F911F901FBE1F90189520
:1058C0001F920F920FB60F9211242F933F934F9375
:1058D0005F936F937F938F939F93AF93BF93EF9358
:1058E000FF938091E10082FF15C08091E20082FF6A
:1058F00011C08091E1008B7F8093E1002091200313
:105900002F5F822F62E30E947931911509F4DCC088
:10591000209320038091DA0080FF2CC08091D80072
:1059200080FF28C08091DA008E7F8093DA0080911A
:10593000D90080FFFEC080E189BD82E189BD09B444
:1059400000FEFDCF81E08093F40387E598E09F930C
:105950008F930E947E08809123030F900F908111F6
:1059600009C00E94270E0E948F0E8091E200846081
:105970008093E2008091E10080FF22C08091E200EC
:1059800080FF1EC08091E2008E7F8093E2008091B4
:10599000E20080618093E2008091D8008062809371
:1059A000D80019BC85E08093F4038FE598E09F93BD
:1059B0008F930E947E0883E0809344010F900F90A4
:1059C0008091E10084FF37C08091E20084FF33C002
:1059D00080E189BD82E189BD09B400FEFDCF8091DF
:1059E000D8008F7D8093D8008091E1008F7E8093D6
:1059F000E1008091E2008F7E8093E2008091E200DE
:105A000081608093E20080912203811509F49FC098
:105A100084E08093F40383E698E09F938F930E9441
:105A20007E088091F4030F900F90843009F097C0A6
:105A300082E0809344018091E10083FF34C0809133
:105A4000E20083FF30C08091E100877F8093E10016
:105A500082E08093F403109222038091E1008E7F14
:105A60008093E1008091E2008E7F8093E20080913C
:105A7000E20080618093E20042E060E080E00E940A
:105A80005F0E8091F00088608093F00087E698E0D8
:105A90009F938F930E947E0881E0809344018093BE
:105AA00043010F900F90FF91EF91BF91AF919F91A4
:105AB0008F917F916F915F914F913F912F910F90B7
:105AC0000FBE0F901F9018951092200380912D0308
:105AD000811509F41FCF8091F4038430B9F49091BB
